:020000041000EA
:1000000000B5324B212058609868022188439860DF
:10001000D860186158612E4B002199600221596106
:100020000121F02299502B49196001219960352056
:1000300000F044F80222904214D00621196600F024
:1000400034F8196E01211966002018661A6600F04E
:100050002CF8196E196E196E052000F02FF8012189
:100060000842F9D1002199601B49196000215960AB
:100070001A491B48016001219960EB211966A021F2
:10008000196600F012F800219960164914480160C1
:100090000121996001BC002800D000471248134993
:1000A000086003C880F30888084703B5996A0420EC
:1000B0000142FBD001200142F8D103BD02B5186610
:1000C0001866FFF7F2FF186E186E02BD00000240BE
:1000D000000000180000070000035F00212200005C
:1000E000F4000018222000A00001001008ED00E03C
:1000F00000000000000000000000000074B24E7A12
:1001000000200420F7010010CB010010CD010010E9
:10011000C9010010C9010010C9010010C901001077
:10012000C9010010C9010010C9010010ED1800102C
:10013000C9010010C90100108118001065190010D4
:10014000C1010010C1010010C1010010C101001067
:10015000C1010010C1010010C1010010C101001057
:10016000C1010010C1010010C1010010C101001047
:10017000C1010010C1010010C1010010C101001037
:10018000C1010010C1010010C1010010C101001027
:10019000C1010010C1010010C1010010C101001017
:1001A000C1010010C1010010C1010010C101001007
:1001B000C1010010C1010010C1010010C1010010F7
:1001C000EFF30580103800BE00BE00BE00BE00BECA
:1001D00000BE00BEF2EB8871C8700010F470001011
:1001E0003802001090A31AE71E481F49086006C88D
:1001F00081F3088810471D480068002801D019487D
:10020000F3E70DA40ECC002902D000F012F8F9E7B4
:100210001749184A002000E001C19142FCD116495B
:100220008847164988471649884700BEFDE701C937
:1002300001C29A42FBD37047F4700010C000002046
:10024000C0150020F48500100000042000000420E8
:10025000F4850010001004200010042000000000AD
:10026000704700000000000008ED00E0000000D032
:10027000C015002074290020C13300105103001064
:10028000B9330010F8B5C0460448054B10B5834299
:1002900003D0044B002B00D0984710BDC0150020A0
:1002A000C01500200000000006480749091A8B10FD
:1002B000C90FC91810B5491003D0044B002B00D04A
:1002C000984710BDC0150020C01500200000000098
:1002D00010B5074C2378002B09D1FFF7D5FF054B4C
:1002E000002B02D0044800E000BF0123237010BDA2
:1002F0009819002000000000986B0010054B10B505
:10030000002B03D00449054800E000BFFFF7CCFFF5
:1003100010BDC046000000009C190020986B001022
:1003200010B5044C200003F09FF90A2000F048FEAD
:10033000F8E7C046986B001010B5044C200003F09D
:1003400093F9012000F03CFEF8E7C046B86B0010BE
:1003500030B5802483B003F033F900250423240151
:1003600022000093094900230195094800F010FD7F
:10037000052322000749009301950023064800F059
:1003800007FD00F017FD002003B030BD086C001021
:1003900021030010106C0010390300100300083313
:1003A00001224360C3600361002352428260036004
:1003B0007047C046002303617047C046030030B554
:1003C0000D6808336A1C0DD01C005B681A68AA42CD
:1003D000FAD94B60996003688C60013361600861F1
:1003E000036030BD04696368F3E7C0460369416890
:1003F00082688A6051605968814205D0002202619A
:1004000018680138186070475A60F7E770B5040043
:100410000E0000283ED0030C0A0C002B3FD1002A0E
:100420002DD1300060430300493333D8483001F008
:10043000EBF9051E2ED00300002E2ED12B60EC63AD
:100440002E6401F071FA296CEB6B2A684B43D018CB
:10045000A86000205B1A6A60D218EA60FF23442279
:10046000A8632800AB540132AB541030FFF796FF5D
:1004700028002430FFF792FF01F062FA0BE0131C12
:10048000A1B2B2B24A4380B29BB24343120C9B1852
:100490001B0CC6D00025280070BD4833CEE7002ACB
:1004A000F8D1301CECE7C046F0B5CE464746040014
:1004B00080B585B08846019201F036FAA56B002D13
:1004C00000D029E1019B002B00D1D0E0260002A83A
:1004D00000F046FF4427243601F032FA00F0A4FC75
:1004E00001F022FAE35D5BB2013301D10023E35551
:1004F0004522A35C5BB2013301D10023A35401F078
:100500001FFA01A902A800F037FF00285AD101F014
:100510000BFAA36B002B00D0B1E001F011FA2423F9
:100520009946A1444846019900F0F6FD01F0FCF916
:100530004523E55C6DB2002D05DC13E0013DEAB218
:100540006DB2002A0ED0636A002B0BD0484600F033
:10055000A1FE0028F2D0013D00F03CFFEAB26DB2EE
:10056000002AF0D14523FF22E25401F0E9F901F01D
:10057000DBF94423E55C343B99466DB2A144002D80
:1005800005DC13E0013DEAB26DB2002A0ED023690A
:10059000002B0BD0484600F07DFE0028F2D0013D34
:1005A00000F018FFEAB26DB2002AF0D14423FF2216
:1005B000E25401F0C5F900F03FFC00284ED101F0F3
:1005C000A7F94BE001F0B0F94523E55C6DB2002DD1
:1005D00005DC13E0013DEAB26DB2002A0ED0636A79
:1005E000002B0BD0300000F055FE0028F2D0013D6A
:1005F00000F0F0FEEAB26DB2002AF0D14523FF22EE
:10060000E25401F09DF901F08FF910239946E55D60
:10061000A1446DB2002D05DC13E0013DEAB26DB2DC
:10062000002A0ED02369002B0BD0484600F032FE82
:100630000028F2D0013D00F0CDFEEAB26DB2002AF2
:10064000F0D1FF23E35501F07BF900F0F5FB01F059
:100650006BF9A36B002B0AD001F072F901F064F979
:10066000A56B002D58D1019B002B00D034E701F081
:1006700067F9002005B0C0BCB946B046F0BD01F036
:100680005FF901F051F94523E55C213B99466DB2D4
:10069000A144002D05DC13E0013DEAB26DB2002A51
:1006A0000ED0636A002B0BD0484600F0F3FD002803
:1006B000F2D0013D00F08EFEEAB26DB2002AF0D118
:1006C0004523FF22E25401F03BF901F02DF94423C8
:1006D000E55C343B99466DB2A144002D05DC13E086
:1006E000013DEAB26DB2002A0ED02369002B0BD077
:1006F000484600F0CFFD0028F2D0013D00F06AFE30
:10070000EAB26DB2002AF0D14423FF22E25401F094
:1007100017F900F091FBA1E7226C002A08D0E168EC
:10072000A3688918E16099420BD2404602F002FEAC
:100730002369013DA563002B06D101F001F90120D9
:1007400098E72168E160F0E72000103000F0A2FD9A
:100750000028F2D001F0DCF8EFE7C04610B5002920
:1007600043D0554B5A68904200D18EE01A68002A57
:100770003CD0DA68904200D19CE09A68002A54D0BC
:100780005A69904200D193E01A69002A53D0DA697D
:10079000904200D180E09A69002A52D05A6A904271
:1007A00057D01A6A002A58D0DA6A904200D175E010
:1007B0009A6A002A57D05A6B904200D170E01A6BA7
:1007C000002A56D0DA6B904200D16BE09A6B002A77
:1007D00055D05A6C904267D01A6C002A57D0DA6C08
:1007E000904263D09A6C002A30D010BDDA689042F3
:1007F00060D05A6990425BD01A00DC69A0424BD0AD
:100800005C6AA04225D0DC6AA04247D05C6BA04263
:1008100046D0DC6BA04245D05C6CA04244D0DC6C7E
:10082000A04243D011605060DFE75A6990423FD048
:100830001A000832E1E7DA6990422DD01A0010322E
:10084000DEE75A6A904204D01C4ADCE748331A00BB
:10085000E8E70422D2009A18E4E7DA6A90421DD051
:100860001A002032D2E75A6B904219D01A0028326F
:10087000CFE7DA6B904215D01A003032CCE75A6CD1
:10088000904211D01A003832C9E70022E2E7DA6C50
:1008900090420BD00A4AC5E70322DBE70522D9E7DD
:1008A0000622D7E70722D5E70822D3E70922D1E7B6
:1008B0000222CFE70122CDE748190020601900206D
:1008C0008819002070B5050016000C0001F02CF806
:1008D0004422AB5C5BB2013301D10023AB5445220F
:1008E000AB5C5BB2013301D10023AB5401F028F8BB
:1008F000AB6B002B46D001F017F84523EC5C64B2DB
:10090000002C16DD2E00243604E0013CE2B264B275
:10091000002A0ED06B6A002B0BD0300000F0BAFC1E
:100920000028F2D0013C00F055FDE2B264B2002A8A
:10093000F0D14523FF22EA5401F002F800F0F4FF61
:100940004423EC5C64B2002C16DD2E00103604E06B
:10095000013CE2B264B2002A0ED02B69002B0BD00E
:10096000300000F097FC0028F2D0013C00F032FD8E
:10097000E2B264B2002AF0D14423FF22EA5400F02C
:10098000DFFF70BD280032002100243000F010FC91
:10099000B1E7C046F0B5C64600B5040000F0C4FF9C
:1009A000374A384E1368013313603368002B34D054
:1009B000354BE26A98461B68002B28D0334D3449EA
:1009C0000B6801330B60334B1968914200D21A60F7
:1009D00093009B189B00E9184A689068A2608446BF
:1009E0006746E060201D78609060EA5861610132DE
:1009F000EA5000F0A5FF43461B68002B04D0336883
:100A0000DA6AE36A9A4211D380BCB846F0BD336813
:100A1000DB6A9342D2D83460D0E734601368012B8C
:100A200007D0194BE26A9846184DC8E700F070FFEE
:100A3000EAE76423154D98462F00A8443800143780
:100A4000FFF7ACFC4745F9D1134B98461800FFF768
:100A5000A5FC124F3800FFF7A1FC1148FFF79EFCE0
:100A60001048FFF79BFC1048FFF798FC42460F4BDD
:100A70001A600F4BE26A1F60034B98469FE7C0461F
:100A8000A0280020F02700202C2900200428002086
:100A9000AC280020B0280020DC280020F02800200E
:100AA000182900204429002030290020F8270020A0
:100AB000FC270020F8B5CE4647469846930080B5FF
:100AC000070018000D00994600F09EFE061E00D19A
:100AD0007EE0682000F098FE041E00D175E06822D8
:100AE000002102F021FC4A460723043A2663B61887
:100AF0009E43002D48D034222B78A354002B43D0A2
:100B00006B780132A354002B3ED0AB780132A35452
:100B1000002B39D0EB780132A354002B34D02B7941
:100B20000132A354002B2FD06B790132A354002B38
:100B30002AD0AB790132A354002B25D0EB790132B6
:100B4000A354002B20D02B7A0132A354002B1BD0AE
:100B50006B7A0132A354002B16D0AB7A0132A35426
:100B6000002B11D0EB7A0132A354002B0CD02B7B3D
:100B70000132A354002B07D06B7B0132A354002B0E
:100B800002D04223AA7BE254089D042D1BD8201DCD
:100B9000E562FFF70FFC20001830FFF70BFC052380
:100BA0005B1BA3614246390030002461646200F09F
:100BB0009FFE099B2060002B00D01C602000C0BC61
:100BC000B946B046F8BD0425E1E7300000F028FE44
:100BD0000024F3E7F0B5C646124B00B59846124D17
:100BE000124F134E14E000F09FFEFB68DC68201DDE
:100BF000FFF7FCFB3368013B33602B68013B2B6044
:100C000000F09EFE206B00F00BFE200000F008FEBE
:100C10002B68002BE7D143461B68012BF8D900F065
:100C200077FEF5E704280020A428002044290020AE
:100C3000A0280020F0B5DE4657464E4645464B4BB1
:100C4000E0B51A6883B0013294461A60002A6FD06A
:100C5000474B00211A68009194455BD3454A904662
:100C600012681268002A52D000229146424A434D2F
:100C70009246434A0193934636E0494659611168CA
:100C8000013911609A6A002A0DD0D969186A56682C
:100C900088604160190018318E4261D049469962DE
:100CA0001168013911605246D96A1268914201D91E
:100CB000524611608A0052189200AE187068876818
:100CC0009860DF607C6084605E61AB580133AB503C
:100CD0005B461B68DB6A994201D9012300934346B6
:100CE0001B681B68002B11D043461B68DB68DB6860
:100CF0005A68944536D35A699868D9681C1D816032
:100D000048605068A042B8D15160B6E7019B01220B
:100D100052421A601B4B1B68002B01D00123009329
:100D2000009803B0F0BCBB46B246A946A046F0BD51
:100D3000104B154A196810681860116013490A6849
:100D400001320A601A681268002A03D1084B013A7E
:100D50001A607EE71B68DB681A68054B1A6078E743
:100D600050609BE7019B1A60D4E7C04658290020D9
:100D70000C290020F8270020B0280020042800209B
:100D8000F027002064290020FC27002010290020E3
:100D900010B582B0059C0194049C0094FFF78AFE74
:100DA000002804D0FFF7F6FD012002B010BD01209D
:100DB0004042FAE710B5002486B01022002102A8B4
:100DC00002F0B2FA114B80220293114B11480193A9
:100DD0000094002302A9FFF76DFE002805D0FFF75D
:100DE000D9FD00F0CDFC012803D00B4B1B6806B0E9
:100DF00010BD72B60122094B52421A60084B1860AE
:100E0000084B1C6000F0D8FDEFE7C04649444C4554
:100E100004290020D50B0010C86D00100C290020FB
:100E20002C29002058290020024A1368013313603E
:100E30007047C046A8280020F0B5DE4657464E460B
:100E40004546E0B583B000F06FFD534C2368013B8D
:100E500023602368002B00D081E0504B1B68002BDF
:100E60007DD04F4B9C461B68002B00D190E04D4B32
:100E70004D4D98464D4B019499464D4B9A46002353
:100E80009B466346DB68DB68D869196A9A6A8160A9
:100E90004860180056681830864200D172E0594602
:100EA00099621168013911605A699868D968566861
:100EB00081604860181D864262D011680139116056
:100EC0004146DA6A09688A4201D941460A609100BE
:100ED00089188C002E1971688F689960DF607860BE
:100EE00088605E612B5901332B514B461B68DB6ACE
:100EF0009A423FD9534601221A6063461B68002B71
:100F0000BFD12C4B019C1A681268002A3CD01B6888
:100F1000DB681A68284B1A60284E3568002D14D0FB
:100F2000012708E0FFF786FE002801D053461F6026
:100F3000013D002D08D02368002BF3D03368013D1C
:100F400001333360002DF6D1356053461B68002B0A
:100F500005D0164B01241B6800F0DAFC00E00024E9
:100F600000F0EEFC200003B0F0BCBB46B246A94640
:100F7000A046F0BD63461B68002B00D081E7C0E7A8
:100F800051609AE751608AE70B4B013A1A60C3E758
:100F9000074B9A46C0E7C046A8280020A02800209A
:100FA00018290020B028002004280020F027002065
:100FB00064290020F82700200C2900201429002093
:100FC000F0B5C646040000B500281DD0154A1368C8
:100FD00001331360144B154D1E68154BA4191F687F
:100FE000144B1B68286898460430FFF7FFF92B68FC
:100FF00029685C600431A6420BD94046FFF7DEF950
:10100000FFF71AFF002801D100F082FC80BCB8462F
:10101000F0BD3800FFF7D2F9074B1A689442EFD2BF
:101020001C60EDE7A828002058290020F0270020A8
:10103000F8270020FC2700200C290020014B18680D
:101040007047C04658290020064B10B51B68002B7E
:1010500002D1FFF7EFFD10BD034A002013680133F2
:101060001360F8E7A828002014290020254B30B58C
:101070001B68002B03D00122234B1A6030BD224A8B
:10108000224C136022682249930098188000085867
:1010900000281DD1551EAB005819800008580028A3
:1010A00026D1951EAB0058198000085800281FD182
:1010B000D51EAB00581980000858002818D1151FFC
:1010C000AB00581980000858002811D1053A930048
:1010D0009B189B00CD18686808334068C918686081
:1010E000884207D00B4BC168196022601B68C5E7B6
:1010F0002A00EDE7E868074BC16868601960226064
:101100001B68BBE7A828002064290020B028002025
:1011100004280020F0270020F0B5C6460C001E4D24
:1011200000B529681831FFF749F91C4B1E681C4BA4
:101130001F681C4B1B68286898460430FFF756F957
:10114000631C15D02B682968A4195C600431A64281
:1011500005D94046FFF732F980BCB846F0BD3800EB
:10116000FFF72CF9104B1A689442F5D21C60F3E794
:101170000E4B29685A688A6090682968C860296897
:10118000043141602968043191602A6853611A680A
:1011900001321A60E0E7C046F027002058290020FD
:1011A000F8270020FC2700200C29002030290020EF
:1011B000F0B5C646314C43680D00216800B59E6805
:1011C000CB6121680E622168183171602168183185
:1011D000996023689862036801330360284B002AF2
:1011E0001DD01B68274B1B68274B1B6820680430E9
:1011F000FFF7FCF8254B21685A688A6090682168DF
:10120000C86021680431416021680431916022681E
:1012100053611A6801321A6080BCB846F0BD1E687E
:10122000184B1B689846184B1F6820680430FFF75E
:10123000DDF86B1C15D02368AD195D60AE420AD88D
:10124000216840460431FFF7B9F8114B1A689542FE
:10125000E2D21D60E0E7216838000431FFF7AEF804
:10126000DAE72268731E53609E42F4D82168404634
:101270000431FFF7A3F8064B1B68CDE7F0270020E9
:1012800058290020F8270020FC27002030290020C2
:101290000C290020C368F0B5DB68D869196A9A6A1E
:1012A00081604860180054681830844241D00021A1
:1012B0009962116801391160234AD96A1268002ABB
:1012C00029D15A699C68D8681D1DA0604460546883
:1012D000AC4230D01068013810601C4A1068884257
:1012E00025D38A001A485218920086187468A76895
:1012F0009C60DF607D60A5605E6183580133835030
:10130000144B00201B68DB6A8B4203D20122124B74
:1013100001301A60F0BD114A5468A568DC611D6295
:101320006860A0609A62136801331360E8E7116097
:10133000D7E75160BBE75060106801381060034A7E
:1013400010688842CDD2F2E7A8280020B0280020FB
:1013500004280020F02700206429002018290020FC
:10136000034B1B680360034B1B6843607047C04618
:101370001029002058290020F0B5C6460D0000B500
:10138000040000F0D1FA114A2B681168581C1BD0D8
:101390000F4E60683768B846276847450AD08842CC
:1013A00008D8002301242B6000F0CAFA200080BC7A
:1013B000B846F0BD0F1ABB42F3D95B1A1B182B605D
:1013C00033682360136863600024EDE75829002028
:1013D000102900200122014B1A6070476429002067
:1013E000F0B5D24A57464546DE464E469046E0B5F1
:1013F000CF4FC246B846CF4BCF4A1F0043468BB0B3
:10140000019224221B6893461D68CC4C002D68D0A5
:10141000DB681D68FFF708FDFFF710FE3B6881469B
:10142000984200D2EDE03860854200D862E10022A7
:101430004B462068E91AFFF745FAFFF7FDFC002844
:1014400000D132E10C22002107A801F06DFF3D0020
:101450000022206807A9FFF727F800283BD0079B48
:10146000002BF5DB099E002EF2D07369002B02D011
:10147000301DFEF7BBFFFFF7E1FD2B680700984228
:1014800066D3079B2F60092BE2D8019A9B00D358A3
:101490009F465B46F05C01235A460343B3540899C8
:1014A000B26936618B187360BB4200D99EE0791A2D
:1014B0008A4236D8410700D5FAE0012398435B46BB
:1014C000F0543000336A98470022206807A9FEF7DD
:1014D000EBFF0028C3D143461B682F001D68002D79
:1014E00096D1FFF7A1FCFFF7A9FD3B688146834237
:1014F00000D986E04B463B6053461B681A6853424E
:101500005A4195E75B460122F35C13435A46B354B4
:10151000089B3661DA19B3617260BA426BD8002B4E
:1015200096D05346311D1868FEF748FF90E75B469A
:101530000122F35C93435A46B35489E75B46F35C5C
:101540009A0700D4ADE0012293435A46B3547FE793
:1015500043461B681A68002A41D00422029691462D
:101560000390049505940BE0012293435A46A3543B
:10157000236A2000984743461B681A68002A2AD02D
:10158000DB68DC681E68271D3800FEF72FFF5B460E
:101590004A46E35C1A42E7D0A3692461F518F64392
:1015A0006560B3420AD82E00F643236A20009847AC
:1015B000A3692461ED186560B342F4D9534639003C
:1015C0001868FEF7FBFE236A2000984743461B6815
:1015D0001A68002AD4D1029E039F049D059C52469E
:1015E000414612680A60524613604AE7B94202D97E
:1015F000994200D85EE74346311D1868FEF7DEFECB
:1016000026E743461B681A68002A3FD04A460397DC
:10161000A14602920BE0012293435A46AB542B6A37
:101620002800984743461B681A68002A2AD0DB68BE
:10163000DD681F682C1D2000FEF7D8FE5B460422E3
:10164000EB5C1A42E7D0AB692D61FE18FF436E6078
:10165000BB420AD83700FF432B6A28009847AB6982
:101660002D61F6186E60BB42F4D95346210018680C
:10167000FEF7A4FE2B6A2800984743461B681A68A9
:10168000002AD4D1029A4C469146039F52464146C5
:1016900012680A60524613604B463B60FFF7CCFB72
:1016A000D0E6300000F0BCF8D2E600F031F9C9E62F
:1016B000A1463C0007E0E31A9A4214D8336A30008E
:1016C00098473B00B269D71877603661BC42F2D2C6
:1016D0009C4201D2BB42F1D94346311D18684C46A9
:1016E000FEF76CFEEDE65346311D18684C46FEF7DA
:1016F00065FEE6E6FFF7A0FB43461B68DB68DE6895
:10170000331D18000293FEF771FE5B46F35C5A0727
:1017100007D4012293435A46B3543000336A9847A2
:1017200090E622002B004C46914610E00028002055
:10173000F427002008290020CC6D00105C2900202F
:10174000E31A9A4214D8336A300098472B00B269E2
:1017500036619D187560AC42F2D29C4201D2AB4218
:10176000F1D94346029918684C46FEF727FED4E7A4
:101770005346029918684C46FEF720FECDE7C04656
:1017800070B582B000F0D0F8164C2368002B11D051
:1017900000F0D6F823680020002B09D0124B8022DD
:1017A000019303231149009311480023FFF7F0FA36
:1017B00002B070BD0F4E3000FEF7F0FD0E4D280058
:1017C000FEF7ECFD0D4B00221E600D4B0C210A2094
:1017D0001D60FEF71BFE20600028D9D00949FEF7E6
:1017E000BDFFD5E75C29002060290020206C001097
:1017F000E1130010B4280020C8280020F42700209E
:1018000000280020186C001010B50400FFF70CFB36
:10181000200001F06BFD0400FFF70EFB200010BD5F
:1018200010B5041E06D0FFF7FFFA200001F070FD8E
:10183000FFF702FB10BDC0460000000000000000E2
:101840000B4A13681868203080F30988022080F35F
:101850001488BFF36F8F3FBCAE4608BC04BC62B6B1
:101860001847C046C046C046C046C046C046C046EF
:10187000F027002000000000000000000000000031
:10188000EFF30980164B1A6820381060F0C0444608
:101890004D4656465F46F0C00D221207146E556E37
:1018A000566F176F3038F0C008B572B6FFF7DEFB21
:1018B00062B60CBC116808681030F0C8A046A94692
:1018C000B246BB4680F309880D2212073038F0C8B3
:1018D0001466556656671767F0C81847C046C04675
:1018E000F027002010B500F0CDF8C0467047C04684
:1018F00010B58024031F64041C60043B1960034975
:10190000043B1960143B40381A6010BDE518001004
:101910008022044B52051A60BFF34F8FBFF36F8FC5
:101920007047C04604ED00E072B6044A1368013304
:101930001360BFF34F8FBFF36F8F70479C28002059
:10194000034A1368013B1360002B00D162B6704755
:101950009C280020EFF3108072B6704780F3108847
:101960007047C04610B5FFF7F5FF0400FFF76CFBAA
:10197000002803D08022034B52051A602000FFF795
:10198000EDFF10BD04ED00E0002310B5074A084C40
:1019900005202360136001F085F9642101F0B6FB96
:1019A000044B013818600723236010BD18E000E0E5
:1019B00010E000E014E000E0FF22114B120419686F
:1019C00010B50A431A60FF22196812060A431A600A
:1019D0000C490E2004F04EFB0B490F2004F04AFB8B
:1019E0000A490B2004F046FBFFF7CEFF0022084B0C
:1019F0001A60FFF725FFFFF739FB00F043F8C046F8
:101A000020ED00E08118001065190010ED1800109D
:101A10009C280020094A83009A1810B514684022B7
:101A2000544080322240064CC000A44663441A60F1
:101A3000044B9C466044416010BDC04604C0014058
:101A400004D00140004001408023DB051868000FEE
:101A50007047C0460FB400B5084883B001F004FEDB
:101A6000049B002B07D005A91800019101F070FC20
:101A7000034801F0F9FD012001F082FC286C001000
:101A8000386C001010B50148FFF7E4FF3C6C001003
:101A900070B5EFF3108C72B60D4D2B68002BFCD097
:101AA000BFF35F8F0724CB08C618C05C01230C402E
:101AB000A3401C000440034207D118433070BFF319
:101AC0005F8F2C608CF3108870BD1000FFF7C2FF91
:101AD0002C0100D0F8B54746CE46884680B5EFF3D6
:101AE000108C72B6214D2C68002CFCD0BFF35F8F98
:101AF0009A422CD8D4080727055D061901241740FF
:101B0000BC402C421FD007210127894609E0D40898
:101B1000055D06194C4639001440A1400C002942CD
:101B200011D001329342F2D201204042BFF35F8FC5
:101B300000220E4B1A608CF3108800280FDBC0BC0B
:101B4000B946B046F8BD254310003570EEE7BFF347
:101B50005F8F00232B608CF31088012040424346A6
:101B6000002BECD00898FFF775FFC0462C0100D081
:101B7000044A1078431CDBB2172B00D910231370D2
:101B80007047C046A00F002010B5064B064C82B02F
:101B90000100009318221F232000FFF79BFF02B0D3
:101BA00010BDC0464C6C0010642300200021044B83
:101BB000044ABFF35F8F02C39342FAD17047C04615
:101BC000000100D0800100D0054B064A1360064A90
:101BD000136053609360D3601361536193617047E6
:101BE0008080808000E400E004E400E01F231840CF
:101BF0001E3B8340002905D0C021044A49005350B0
:101C000013607047802201498B50FAE700E100E041
:101C100001228240034B1B6813405A1E9341D8B2E5
:101C20007047C04600E100E001238340014A136091
:101C30007047C04600E200E0064B10309B68800011
:101C4000C358054A00209B1A2F229A424041C0B235
:101C50007047C04600ED00E0A40F002070B50D00F5
:101C6000EFF3108672B60F4A1368002BFCD0BFF357
:101C70005F8F0D4B10309B6884001B590B4A9342B9
:101C800003D09D4201D001F017F9074B9B681D510D
:101C9000BFF35F8FBFF35F8F0022024B1A6086F3A2
:101CA000108870BD240100D000ED00E0C1010010DB
:101CB000F0B557464E46DE464546E0B585B00600CF
:101CC00000911700EFF3108B72B66A4A1368002B6D
:101CD000FCD0BFF35F8F0025674B5D579A46002D00
:101CE00000DAA9E06B00654C01935B199B009846F4
:101CF000A146C1444B4652469B7910361370604B47
:101D0000B6009B6899590B1B2F2B33D95D4B994219
:101D100000D0ACE0019B42469C465B4B6544AD0065
:101D200063535A4B0232A218043B9B1A1B05584AB4
:101D30005B0D651913436B80564B0121AB80FF236C
:101D4000AB71009BEF71AB604B460B4319004C4BE2
:101D50009B689951BFF35F8FBFF35F8F0022454BA4
:101D60001A608BF3108805B0F0BCBB46B246A9469A
:101D7000A046F0BD01200A008243D3798C46BB42C5
:101D800031D84546130044491B1B5B415943090D9B
:101D90003D4B63533D4B02356519043B5B1B1B05F3
:101DA0003B4D5B0D2B43AA464D466B800425AC464C
:101DB0005546E044131F44441B1B1B055B0D1D438C
:101DC0004B46997100999D8099604946DF71334B6C
:101DD00001431360BBE75800C01880002018C17988
:101DE000B9422FD902000623D356002BF3DA02930F
:101DF0002B4B61460393131D9A4604235B429C467A
:101E0000E14450464B461B1A1B055B0D9C46204B7C
:101E1000957198466346404603439380019B5A1947
:101E20009200039BA418A380029B1C4AA371009BF1
:101E30002260E771A3608AE701F03EF8002553466F
:101E40005D574FE7908802934005131D9A4603158E
:101E500061469C464046D444634604302018181A14
:101E6000E0230005400D1B0218430390C5E701F075
:101E700023F84FE7240100D06C290020A40F002094
:101E800000ED00E0C101001000A1FFFFD40F002011
:101E900000E0FFFF01BDFFFFAAAA00000148804744
:101EA00001BD0000F0B5DE4657464E464546E0B55A
:101EB0000C0083B0EFF3108872B6634A1368002BEE
:101EC000FCD0BFF35F8F614B61499A680300103308
:101ED0009F00D55900938D4243D0A54254D05D4E0A
:101EE000AA1B2F2A3DD85C4B9C461B689A460123AF
:101EF0001A0099468240534613401F2201934B46D5
:101F0000024093409A468022634650469850BFF361
:101F10005F8FEFF305839B46002B37D0009B5B451B
:101F200001D000F0C9FF2A004B469A4390688442D2
:101F300008D177E04B005B189B00F3189868844247
:101F400036D01A00062151560029F3DA844255D0C2
:101F5000019B002B27D0C02251463F4B5200995085
:101F600019603A4B9B68DD51BFF35F8FBFF35F8F02
:101F70000022354B1A6088F3108803B0F0BCBB46D2
:101F8000B246A946A046F0BD0D00EAE72A004B463E
:101F90009A4390688442D5D1062010561300002839
:101FA0000ADA0D0032E0802351462B4AD150D8E79F
:101FB00006201856002822DB4200111889007418E8
:101FC0008946A1689960E179D971062161569971B4
:101FD000002925DBA488F11A640524154C4409194D
:101FE000E0240905490D24022143998013181B4A56
:101FF0009B001178F31899711070A9E713005946E6
:10200000002914D1FF3191711549918013490A7843
:102010009A71144A9B1B5B415A43120D0A7097E751
:102020001149E2E70620105613000028C4DA0F4ACF
:102030000F49D21A083A5002400D014399800D49C8
:1020400052080A43DA8083E7240100D000ED00E063
:10205000C1010010A40F002000E100E06C29002065
:1020600001BDFFFFAAAA000001BD0000DE0F002095
:1020700000F0FFFF00F8FFFF70B501240443EFF309
:102080000581EFF3108C72B6214A1368002BFCD047
:10209000BFF35F8F1F4B05001F4AED1A6D416A4366
:1020A000120D1E4D8900AE6852B27658A6421CD061
:1020B0000621595691421CD012215956914222D0E4
:1020C0001E215956914220D02A215956032491426B
:1020D00010D0134B19781A708171BFF35F8F0022F3
:1020E0000B4B1A608CF3108870BDAB680D4C5C50C4
:1020F000EFE700246100091989005B18FF2199713D
:1021000009499980E5E70124F4E70224F2E7C04693
:10211000240100D0A40F0020AAAA000000ED00E0D6
:102120006C290020C101001001BDFFFF10B5084B54
:10213000084C82B001000093002205232000FFF725
:10214000C9FC002801DB1F23181A02B010BDC046CD
:10215000686C001070290020024B9C466144890085
:10216000016070474000003470B5114C114DAC4215
:102170000FD2FF262368002B0CD0FFF7F9FC0100DB
:102180002000FFF7E9FFA680BFF35F8F0834AC4261
:10219000F0D370BDFFF7ECFC01002000FFF7DCFF7F
:1021A0002671BFF35F8F0834AC42E3D3F1E7C0463A
:1021B000B8150020C015002010B50400FFF7D8FCAA
:1021C00001002000FFF7C8FFFF232371BFF35F8FDB
:1021D00010BDC04610B504000120FFF7D5FC034B2D
:1021E000C3189B002360BFF35F8F10BD4000003415
:1021F000034B9C46614489000160BFF35F8F7047C9
:10220000400000340A4B1968EFF3108072B60A6878
:10221000002AFCD0BFF35F8F1B68BFF35F8F0022E3
:102220001A6080F3108840BF002000217047C0462C
:1022300074280020F0B5DE4657464E464546E0B5C8
:1022400083B0EFF3058203231340B54A9900525837
:102250000091904601229A409346B24B1A60B24BCD
:1022600001935B46B1484363434608229B5E99460F
:10227000002B3ADA43469B881BB2002B00DB9DE023
:1022800043469B79002B00D0E1E0434608241C5FC5
:10229000002C20DB43465A6963001B19DB00D3186E
:1022A0009D68DC686B1C00D103E1A048009984465E
:1022B0006144826A0B69AE1A9B1A9E4213D35A4636
:1022C000036A1A420FD0994800F028FB8C4202DCC6
:1022D000C7D18542C5D940BF03B0F0BCBB46B246AA
:1022E000A946A046F0BD0D61EDE7424652695B008C
:1022F00092464B44DB009A4453469E68DF6800F0E8
:102300000DFB8F42B6DC00D1F8E0002F00DAD9E0F7
:102310005246534654691B69019A934200D1CCE05E
:10232000414652460820085E5288000421001043AE
:10233000984704000D0023002B4300D1C2E0002D7C
:1023400000DBDFE030003900001BA94153469860F4
:10235000D96000229A5E002A00DA8BE743465D6965
:1023600053009C18E4002C19A768E4688C4200DD37
:1023700080E702D1874200D97CE7464632810836A1
:102380000DE08C4200D1C6E01E000023F25E002A60
:102390000ADB53009C18E4002C19A768E4689B181A
:1023A000DB00EB188C42ECDD53461A804B46338041
:1023B00043469B881BB2002B00DA61E743461A694B
:1023C000EFF3108172B61368002BFCD0BFF35F8F60
:1023D00043469E88012342465B42938036B213698E
:1023E000BFF35F8F00221A6081F31088002E00DA9D
:1023F00046E743465D69083342469C467700BF196D
:10240000FF00EF19BB68604698460823D15E9246EC
:10241000FC68002907DA0EE0A24246D0180000232B
:10242000C15E002906DB4B005B18DB00EB18DA68A5
:10243000A242F1DD524606800023FE5E3980002E66
:10244000DCDA904643469B79002B00D11DE7002340
:1024500042469371434646460821595E08364B1C56
:1024600000D138E747468946556902E006004B1C13
:1024700018D04B005B18DB00E8180A008C46E95EB8
:1024800043881BB2002BF1DA01235B42DC17836027
:10249000C4604A4503D031803B8903803A81E146DC
:1024A0004B1CE6D1B8464C46F2E69A684245B5D98F
:1024B000C0E7631C00D0F8E605E7200023699847D1
:1024C000002825D1534642461B8813811269EFF339
:1024D000108372B611680029FCD0BFF35F8F4246AB
:1024E000514652880A804246494651801269BFF3DC
:1024F0005F8F0021116083F31088BBE6864200D80D
:1025000003E7B7E6094800F009FA001969411DE739
:10251000656824680FE7874200D835E744E7C0467E
:10252000E02700203C7005403522001000400540A7
:1025300070B52E4C2569002D04D00A212C48FFF7D8
:102540000BFE70BD2B4E0321300000F0DDF9E6607C
:10255000FFF70EFB284B03229C46D02322701B065C
:102560001B6801216370254B6044A3600F2380002A
:1025700020610220638063694942A1801980023191
:10258000198647311D83585218315A5275325C39B9
:102590009952183201319952183201319952183238
:1025A00001319952083518329D5202311832995230
:1025B00018320131995218320131995218320131D1
:1025C00099521832013199521832013199520C4BFB
:1025D0000C49DC6001303562FFF740FB012103202C
:1025E000FFF704FB084B1D60A7E7C046EC0F002077
:1025F000742800200040054040000034FFFF100018
:10260000E027002035220010386005400048704760
:10261000EC0F0020F8B51F0008AB1B780400160073
:10262000002B08D100F082F932003B00121A8B41D6
:10263000002B00DA53E02269EFF3108072B61368C2
:10264000002BFCD0BFF35F8F0223E15E63694A0079
:102650005218D2009B18002937DB1A886280226941
:10266000BFF35F8F0025156080F31088069A9E6087
:10267000DF601A61079A5A615A8801325204520C7B
:10268000101C002A1FD082B258800804104326690B
:10269000EFF3108772B63268002AFCD0BFF35F8F69
:1026A000A2881A80A1802369BFF35F8F00221A607D
:1026B00087F310880B4923788C4601329A40E368EF
:1026C00063441A60F8BD0120DDE72369BFF35F8F23
:1026D00000221A6080F3108801204042F2E70020B7
:1026E000F0E7C0463C20000070B501000469EFF33C
:1026F000108C72B620680028FCD0BFF35F8F0220D8
:102700000D5E4C6968004019C0002418002D37DBAD
:10271000208848800869BFF35F8F002606608CF32D
:102720001088E36063880498013320615B04059896
:102730005B0CA26060611A1C002B1FD093B22804AE
:10274000628018430A69EFF3108C72B61368002B8D
:10275000FCD0BFF35F8F8B8823808D800B69BFF324
:102760005F8F00221A608CF310880B7801329A4038
:10277000CB6808498C4663441A6070BD0122DDE7CE
:102780000B69BFF35F8F00221A608CF31088012061
:102790004042F2E73C20000010B543890A149342FE
:1027A0001ADD53009B184269DB00D3180469EFF36C
:1027B000108C72B62268002AFCD0BFF35F8F5A8853
:1027C000090494B2090C8A4208D00369BFF35F8FF1
:1027D00000221A608CF31088002010BD80221202A3
:1027E00014435C80012302698371BFF35F8F002172
:1027F00011608CF31088044902788C469340C268BB
:10280000012062441360E8E73C20000040787047F4
:10281000F0B5D6464F464646C0B504000D0082B01E
:10282000EFF305878946002F0ED0344900204B6A0C
:10283000AB4203D38A6A0130A24226D302B0E0BC85
:10284000BA46B146A846F0BD2D4B9846DB689A467D
:10285000434650461E7800F061F80B0051460200D6
:102860000436B600715820008E1A2900801A99414A
:102870008F4211DC0ED020BF204A0020536A4B4506
:10288000DCD3926A0130A242D8D25B1B5A1E93411C
:10289000D8B2D3E78642EED900F048F822002B00E8
:1028A000121A8B41002B1ADB00230193154B2200D7
:1028B000009340462B00FFF717FF011E0FDD0F4B63
:1028C0005A6A4A4517D39B6AA34212D34046FFF780
:1028D00063FF0A4A0020536A4B45AFD3D1E7074A4A
:1028E0000020536A4B45A9D3926A0120A242A5D287
:1028F000CBE74A45EAD120BFE8E7C04600400540A3
:10290000EC0F00200522001010B5024A0248FFF724
:10291000BFF810BD846C0010682300200300416ADA
:102920000A00986A596A8A42FAD17047034B596A79
:102930000A00986A596A9142FAD1704700400540EE
:1029400070B504000D00174A536A1900966A536A5D
:102950008B42FAD13000190024184D41AB4216D8F1
:1029600013D0104A2B00526A954203D90D494A6A86
:102970009A42FCD39A4207D10A4A02E0516A99422C
:1029800002D1916AA142F9D370BDA642E9D9054BA3
:102990005B6A1C005A1CEFD0012301246442E51736
:1029A0005B42E3E700400540F8B5040006200D0057
:1029B00000F078F9002844D0374B3849E3185A1E04
:1029C00093418022120494465B429B0D344A9B053E
:1029D00063441360334A136018000A689043FBD1C4
:1029E0002D4B314AE31859424B4180215B0049008D
:1029F0000620995200F056F92900C00000F086FB2D
:102A00000130C3091ED1402701226262A362266BF6
:102A1000F30722D4E36A254B0620E51800232B6038
:102A2000266300F03FF93900800000F06FFB70234F
:102A3000E26A5A400E3313402B601D4B236303237D
:102A4000A364F8BD1B4A93421ED900231A4A1B4FA8
:102A50006262A362266BF307DCD5194B144AE318B4
:102A60001A60656AA36A0620AD01ED1800F01AF934
:102A7000144900F04BFBAD020100280000F046FBBA
:102A80000021FFF75DFFC5E74006800E9F011A0099
:102A90003F180300B9E7C0460080FCBF08C00040F3
:102AA00000E0004000F00040802800202C100000D2
:102AB00001030000FEFF0000FFFF0000C0FF3F0019
:102AC000303000004E0E0000F8B5DE464E46574648
:102AD0004546E0B58B4605000A991800160000F03F
:102AE00015FB0A9B6C001F02324B64199C46A40024
:102AF0006444636881469F4200D967602B1FDBB244
:102B00009846012B30D9C02380229B01E318120183
:102B10001A60294BAD0059599A4600291BD17301FF
:102B2000E026226853401E40802342465B01E318A2
:102B30001E60012A30D9802380229B01E3181201F4
:102B40001A6053464A4667605A51F0BCBB46B246CB
:102B5000A946A046F8BD586900F0D8FA01304300F4
:102B60001B18033BFDD2DAE75B46012BCBD1C02318
:102B700003229B01E3181A60023AA3681A42FCD0B0
:102B80007301E0262268AD0053401E4080230A4AAC
:102B90005B019246E3181E605A46216851400322A9
:102BA0000A401A6001225B469A40A3681A42FCD090
:102BB000C1E7C046008000406C230020F0B54646C7
:102BC0004F46D646C0B51F00344B44009C462418DF
:102BD000A4006444636888461600FF2B02D8802353
:102BE0005B006360031FDBB29A46012B30D9C02320
:102BF00080229B01E31812011A60294B8500595964
:102C0000994600291BD17301E026226853401E40DB
:102C1000802352465B01E3181E60012A30D98023CD
:102C200080229B01E31812011A6080235B0063601D
:102C30004B465F51E0BCBA46B146A846F0BD586964
:102C400000F064FA013043001B18033BFDD2DAE7C1
:102C50004346012BCBD1C02303229B01E3181A600A
:102C6000023AA3681A42FCD07301E026226885006C
:102C700053401E4080230A4A5B019146E3181E60C0
:102C800042462168514003220A401A60012342460D
:102C90009340A2681342FCD0C1E7C04600800040C8
:102CA0006C230020014B8000C05870476C2300202B
:102CB000F8B5040021481E0017000D0000F026FAA8
:102CC0000100380000F022FA069B36041B031E4365
:102CD0002368002B20DB1A4B1A49E3185A1E934134
:102CE0008022920194465B421B0B174A1B036344EC
:102CF0001360164A13601F000A689743FBD1144BF8
:102D00002560E2182123A06013602368002BFCDA01
:102D10000823E6601360F8BD3F2322681340AB42EE
:102D2000D9D1A3681B051B0D8342D4D1EE22E368E1
:102D3000D2021340B342CED1EDE7C046001BB7002C
:102D40000040FDBF08C0004000E0004000F000402F
:102D50000430000010B580241C4BE4051C600028E2
:102D60001AD001231A4C18431A4BDC611A4C444008
:102D70001C62596298628021144BC905196017487A
:102D800017490860E021C9041960002A07D1802290
:102D9000144B12061A6010BD0E4BD861EBE75301BD
:102DA0009B1A9B009A18802312015B049A4209D255
:102DB00013000D490B60074B5A608022094BD20566
:102DC0001A60E8E7094B1A00F3E7C04600B0054077
:102DD000D3C007B0008005402D3FF84FFCFF010035
:102DE0000820014000A00540D0270020FFFFFF0081
:102DF0008023024A9B000B43D3627047008005404A
:102E0000142310B50100188804331B88984710BD9F
:102E1000162310B50100188802331B88984710BD8F
:102E2000F8B54746CE4680B50F1E19D014239946F3
:102E3000043304000025012698464B461888434673
:102E400021681B88984701C4431E984101354042C0
:102E50000640AF42F1D13000C0BCB946B046F8BD23
:102E60000126F8E7142370B50400188804331B8882
:102E70000D000549984703000020002C01DB0130BC
:102E8000A04029009847C04655420000AA23064AA0
:102E90001B0113608D235B00D3600449044B196050
:102EA0005368002BFCDA70470040024000B0FA0083
:102EB000006002407047C04610B50148FEF7CAFDE9
:102EC000A86C001070B5074D074EB54209D200241A
:102ED000013E761BB60808CD984723000134B34263
:102EE000F9D170BD506B00108C6B0010054B064A79
:102EF00006491A60064A074B1A6010000B6898438F
:102F0000FBD1704700E00040BFCDFBFE08C0004091
:102F1000FE7F3C0000F00040044BDB6C002B03D133
:102F20008022034BD2021A607047C0460000115045
:102F30004C201150044A054B1A60054A1368DB0106
:102F40008033FBD17047C046FFFFFF0100F0004017
:102F500008C000404022034B9A675A671A67DA6636
:102F60007047C04600F0014010B5FEF71FFE10BDCF
:102F7000F8B52749274C284D641AA6103200302E88
:102F800000D930222800920000F0D4F9BC2C3BD8A4
:102F900030202F232C196407204A801BE40F9B1B31
:102FA000052B16D93700002C02D0B300771CEA504D
:102FB000001B33199B004108EB18C900C9181A609F
:102FC0005A6008339942FAD1012303421CD0984336
:102FD000C619B300EA50731C2F2E15D09B00EA507F
:102FE000B31C2E2E10D09B00EA50F31C2D2E0BD0BC
:102FF0009B00EA50331D2C2E06D09B00EA50731D17
:103000002B2E01D09B00EA50054B9D60F8BDC046B9
:1030100000010010C001001000000020C1010010DC
:1030200000ED00E0002310B5294C82B0A367FFF744
:103030002DFF0122274B1A60636C012BFCD1032268
:10304000254B1A60224A936B012BFCD1013300936C
:103050000121224A22480433FFF72AFE05230121D9
:103060000093204A2048FFF723FE0022022104207B
:103070001E4BFFF7A3FD0022012105201C4BFFF78B
:103080009DFD0022002107201A4BFFF797FD00222B
:1030900000210820174BFFF791FD8023DB000093F0
:1030A000002200210920134BFFF70EFD0022104BD8
:1030B00000210620FFF782FD0420FFF7F3FD0E49F3
:1030C00000F024F801000020FFF792FE02B010BDCE
:1030D000008000403CB0004030B00040002F6859F4
:1030E00000800240008C864700C00240001BB700F1
:1030F00040597307006CDC0240420F000148042174
:10310000014B184710100020212E0010114A936F18
:103110009B0813D210665166002905D0FFE7FFE730
:10312000FFE7516F106F704704B5002801D00020F1
:10313000C04303F0D5FC002104BDC046F0B5146EB9
:10314000556E576F166FFFF7E5FF146655665767A4
:103150001667F0BD000000D0132370B51D78012D57
:1031600019D014DD1F48FFF753FE06001E48FFF775
:103170004FFE1E4C80223100200000F0DBF8022DB3
:103180002DD01B48FFF73CFE1A4B186070BD1A4B40
:10319000164CA364F5E7184B144C23606360A360DE
:1031A000E36023616361A361E36123626362A362FD
:1031B000E36223636363A363E36323646364A364DD
:1031C000E36423656365A365E36523666366A366BD
:1031D000E36623676367A367E367A364D1E7064BEE
:1031E000A364CEE753440000534600004817002074
:1031F0004C33000070280020FD31001007B56046F8
:1032000001880A0A0230DF2AFAD1C9B2820804D33F
:10321000028840880004104300E00068014A5050D2
:10322000039007BD4817002051434343C9188C46FB
:10323000110C83B24B4310B4040C614392B280B2C0
:10324000504362431C041B0C001910BC5941130469
:10325000120CC0185141614470470000132310B58F
:1032600012481C78FFF7D4FD0100012C0AD003DDC1
:1032700080220F4800F05EF80E48FFF7C1FD0E4BAC
:10328000186010BD0A4C5422200000F053F80B4B7C
:103290006365A365E36523666366A366E3662367E8
:1032A0006367A367E3672362E361E5E753460000D2
:1032B000481800204C33000070280020C132001054
:1032C00007B5604601880A0A0230DF2AFAD1C9B27E
:1032D000820804D3028840880004104300E000689C
:1032E000014A5050039007BD4818002010B5040053
:1032F00003F002FB002804D0034B04199C4200D8C1
:1033000010BD0248FEF7A6FB00000420B46C0010BC
:1033100010B503F0FBFA10BD01480421014B18471A
:1033200020100020212E0010014B1B6818470000C0
:1033300020100020014B5B6818470000201000207F
:1033400010B5002800D110BD00F042F9FBE7C046DF
:1033500010B5094A0300146884B0002C08D001227B
:1033600000910648524203A9A047012004B010BDB5
:1033700000F07AF90020F9E7CC2700204133001053
:1033800000BEFDE7094A03001068002805D008497F
:10339000C3188B4207D81360704706480449C31806
:1033A00010608B42F7D901204042F5E7C823002086
:1033B000000004207429002010B5FFF7E1FFC0468B
:1033C00070B5FFF77FFD074D074EB54209D20024C7
:1033D000013E761BB60808CD984723000134B3425E
:1033E000F9D170BD8C6B0010986B0010030010B504
:1033F000080011001B68984710BDC046F0B5C646CE
:1034000000B5437D07000D001600002B38D0002AC0
:103410002EDD00216A1E90466A5C037D4C1C002054
:103420000A2A0CD0A64216D043461B5D21000D3B54
:103430005A4253416A5CDBB24C1C0A2AF2D1002B7F
:10344000F0D1884217DB022110483B689847A6421A
:1034500007D02000E8E7864203DD311A3B682818D0
:103460009847AD19013D2B780D3B5A4253413B75AE
:1034700080BCB846F0BD091A3B6828189847E2E7B7
:103480000368110028009847F2E7C046486E001014
:10349000F0B5DE4657464E464546E0B585B01700C6
:1034A0001C0006000D00FFF741FA0023314A1218F4
:1034B0004B41802109068B4202D301222E4B5242FE
:1034C0002E4908008A4603F023FB01906B1C03D1B0
:1034D000300003F03FFA0500002C26D0284B984618
:1034E000284B1C68002C15D0002F21D1264F02E05C
:1034F0002469002C0ED02368002BF9D03B68002BE8
:1035000001D09C42F4D120002A003100C047246938
:10351000002CF0D1019B002B28D1280005B0F0BC75
:10352000BB46B246A946A046F0BD184B9846D7E721
:10353000154B994602ABDF1D0A239B4602E0246926
:10354000002CE7D02368002BF9D04B461B68002BDA
:1035500001D0A342F3D12A0031002000C0475B46CE
:103560000122390020003B70C047E8E7504603F0D5
:103570009FFAD2E740420F00FFFFFF7FB8150020FF
:10358000FD330010BC230020C4230020ED330010C5
:103590000A4A1368002B05D10CE01A001B6910328F
:1035A000002B07D09842F8D1002902D1036913609B
:1035B000016170470029FCD01060FAE7BC230020AD
:1035C00010B500F03DF900F085FB012010BDC046AC
:1035D000F0B5CE46474680B583B06B460600DD1D8C
:1035E0002870FFF7A3F900231A4A12184B418021D3
:1035F00009068B4202D30122174B52421749080099
:10360000884603F085FA164B81461C68002C14D0BE
:10361000144F02E02469002C0FD02368002BF9D04E
:103620003B68002B01D09C42F4D1200001222900EC
:10363000FFF7E4FE2469002CEFD14B46002B05D1A7
:10364000300003B0C0BCB946B046F0BD404603F000
:103650002FFAF5E740420F00FFFFFF7FB81500206B
:10366000BC230020C423002070B5040003F072F9CD
:1036700001230100050001222000FFF709FF084B8C
:103680001C68002C06D06368002B05D0984724697D
:10369000002CF8D1280070BD2469002CF3D1F9E783
:1036A000BC230020F0B5002915DD0E4B0D271A684C
:1036B0000D4B0E4CD3185D426B41451820215B0029
:1036C0001E5F0478A64207D093691942FCD10130ED
:1036D0001460A842F5D1F0BD93691942FCD117607E
:1036E000F2E7C046842800200080FCBF802800202C
:1036F000204B70B504000D1E1E682ADD002010212D
:103700001D4B013C1A689369194214D10130936929
:103710001942FCD1136823548542F4D1002E08D0FD
:1037200050239363516B183B0B4014498C46624401
:10373000136028000CE0002E08D050239363516BD7
:10374000183B0B400D498C466244136000280DD095
:1037500070BD002E0AD05022074B1B689A63596B2C
:10376000183A0A4005498C4663441A6003204042D7
:10377000EEE7C046542300208428002034100000C7
:10378000064B10B51B68002B06D00021044A1268B6
:103790009163044A1068984710BDC0465423002026
:1037A000842800205C2300200822034B19688B69C1
:1037B0001A42FCD17047C04684280020F8B51A4F41
:1037C0001A4B3A680500D31858424341184E143337
:1037D0001C003368002D02D0002B0FD0F8BD002B49
:1037E000FCD0002120009563FEF700FA200011496B
:1037F000FEF758FB104B35601D60EFE70E4B2000C5
:1038000019600C493560FEF729FA01212000FEF706
:10381000EDF950223B689A63596B183A0A40074900
:103820008C4663441A60D9E7842800200080FCBFDE
:1038300054230020813700105C2300203410000046
:103840000D4B10B51B780D4B0D4C1B780D4B022109
:103850001B780D4B00202360FEF7DCF802210120CD
:10386000FEF7D8F8E12120684902FFF79DF8012111
:103870000648FFF78DFE10BDEC700010E8700010D8
:1038800084280020E4700010004003403010002025
:103890007047C0460022014B1A7070476D29002006
:1038A0004B790020FF2B0BD18B79002B08D1CB79E2
:1038B000012B05D1082A03D9024B8A7809301A70E6
:1038C0007047C0466D2900200120704710B50129BE
:1038D00001D0012010BD13495379107909781B02DA
:1038E000034300209942F5D15378012B08D0022BD5
:1038F000F0D1002064220021FFF72CFA0120E9E733
:10390000D37891781B021943DB0507D54A0A1000CA
:1039100001231A407E331940FFF7A4FA01204A0A16
:103920004042F5E76D29002000487047306F0010D5
:1039300070B5050014000120012909D15378002039
:10394000012B05D1637912791B021343072B00D099
:1039500070BD21002800024A9F3301F05FFAF7E7AB
:10396000886E00100123037000487047686E0010D5
:103970004B780A781B0213438A7810B512041A4355
:10398000CB781B0613439622D200934200D010BD81
:103990000022012011004042FFF764FA024B186038
:1039A000024B19607047C046582300206023002056
:1039B00010B5024B1878FEF737F910BD6E290020BC
:1039C000154B70B51A68002A22D0EFF3108172B639
:1039D00010680028FCD0BFF35F8F00200F4A5960A9
:1039E00010701B68BFF35F8F186081F3108800248C
:1039F00000250B4E3078FEF70BF9002804D1002487
:103A000000252900200070BD3078FEF70DF9F8E799
:103A1000FA240025A400ECE7D82700206F29002015
:103A20006E29002070B5040000200E0001F016FB86
:103A3000002836D0002001F027FB002831D0FEF707
:103A400075FF0023184A12184B41802109068B424A
:103A500016D2164D280003F05BF8002821D0002074
:103A600001F0FCFA00280FD101200021404200F0B3
:103A700009FD03246442280003F01AF8200070BDF9
:103A800001220B4B5242E4E7002001F0FDFA00282E
:103A9000EAD021003200002001F000FB041EEAD130
:103AA000E7E703246442E9E740420F00782800205A
:103AB000FFFFFF7F10B5FEF739FF00230E4A1218F3
:103AC0004B41802109068B4202D301220B4B52420B
:103AD0000B4C200003F01CF800280CD00120002122
:103AE000404200F0CFFC002001F022FB0028F5D17D
:103AF000200002F0DDFF10BD40420F00FFFFFF7FFE
:103B000078280020F8B5DE46574680B505000C0041
:103B1000FEF70CFF0023374A12184B41802109069B
:103B20008B4202D30122344B5242344908008A4668
:103B300002F0EEFF002803D1C0BCBB46B246F8BD80
:103B4000002001F08BFA00284AD00026002C43DD2B
:103B50002B4B9B4614E0A919002001F023FB070022
:103B600001200021404200F08DFC002001F0E0FA2D
:103B7000FEF7DCFE224BF61918605960B4422BDDCB
:103B8000002001F02FFBA71B0200B84200DD3A0025
:103B9000002AE0D101200021404200F073FC002007
:103BA00001F0C6FA002001F059FA002814D00020D4
:103BB00001F018FB0028E1D1FEF7B8FE5B460F00CC
:103BC0001A685B68002184460E4812184B419F42D8
:103BD00002D8D3D19445D1D9504602F069FFABE762
:103BE00000200021064B18605960504602F060FF2B
:103BF000A2E7C04640420F00FFFFFF7F7828002069
:103C00004017002020A1070030B52B4C85B00021C3
:103C1000200002F06DFF00281CD1284B1A68002AF2
:103C200016D0EFF3108172B610680028FCD0BFF3F5
:103C30005F8F01242248596002781B68D2B2047059
:103C4000BFF35F8F0020186081F31088002A17D01F
:103C500005B030BD01200021404200F013FC0020DF
:103C600001F012FA0500200002F022FF002DEFD033
:103C7000144B1B68002BEBD0134A10689847E7E7FA
:103C8000FEF7C4FC0400FEF751FEFA220023920066
:103C900012184B41802109068B4202D301220B4BA3
:103CA0005242012102910021019109492000009115
:103CB000FEF7B0FCCCE7C04678280020D8270020CB
:103CC0006F2900205823002060230020FFFFFF7F82
:103CD000C1390010D02310B51B0684B01C68FEF754
:103CE00095FCFEF793FDA04202D0002004B010BD69
:103CF0002A4B002100201B7801F070FD2848036842
:103D0000002B47D00120FEF711FAFF23254C26494E
:103D100020701840FDF7A2FF20780121FDF766FF13
:103D20000520FDF789FF002826D1082200211F4821
:103D3000FFF7FAFAFEF76AFC0400FEF7F7FDFA2235
:103D40000023920012184B41802109068B4202D3B6
:103D50000122174B52420121029100210191154984
:103D600020000091FEF756FC0028BEDB124801211E
:103D7000FFF70EFC0120B9E70120FDF705FF0B4B13
:103D800001001800FEF734FA002205200B49FDF768
:103D90008FFFEBE7FEF710FAB4E7C046F0700010B3
:103DA000782800206E290020093C0010D827002028
:103DB000FFFFFF7FC139001048100020B13900100B
:103DC00000487047CC6F001000487047786F0010B3
:103DD00010B5040017480378002B20D0002C06D122
:103DE000154B16484380063BFF3B038010BD052C56
:103DF00019D8134BA400E05812490123013804E0FC
:103E000001330A800231142B0FD0C25C002AF7D193
:103E1000C022DBB25B00920008481343E5E71121A2
:103E200000F01AF8DAE70020E0E7CA2303489B0015
:103E3000DBE7C04688280020090400009423002006
:103E4000606F00109623002010B5024800F0D8F8EB
:103E500010BDC0466828002030B54B1E012900D196
:103E6000A7E0664A11780D092C0030349F2900D94B
:103E7000A2E00470012B00D1BEE00F211478214094
:103E80000C003034092900D998E04470022B00D18D
:103E9000B2E054782509290030319F2C00D990E0F8
:103EA0008170032B00D1A7E00F2121400C0030349A
:103EB000092900D987E0C470042B00D19CE09478D4
:103EC0002509290030319F2C00D97FE00171052B95
:103ED00000D191E00F2121400C003034092900D994
:103EE00076E04471062B00D186E0D47825092900BC
:103EF00030319F2C00D96EE08171072B00D17BE01F
:103F00000F2121400C003034092966D8C471082BD8
:103F100000D171E014792509290030319F2C5FD838
:103F20000172092B68D00F2121400C00303409297F
:103F300058D844720A2B5FD05479250929003031B2
:103F40009F2C52D881720B2B56D00F2121400C0090
:103F5000303409294BD8C4720C2B4DD094792509E3
:103F6000290030319F2C00D9073101730D2B43D02C
:103F70000F2121400C003034092901D937310C00C0
:103F800044730E2B38D0D1790C09220030329F298E
:103F900000D9073282730F2B2ED00F220A40110056
:103FA0003731092A01D830321100C173102B23D0C8
:103FB00010300023037030BD07345AE737310C004E
:103FC00063E707316CE737310C0074E707317DE7B1
:103FD00037310C0085E707318EE737310C0095E764
:103FE00007319DE737310C00A3E70731AAE73731E6
:103FF0000C00C4720C2BB1D1C018DAE7682800207D
:1040000010B588B004000D2200216846FFF78CF936
:104010000D22002104A8FFF787F94B236A46684662
:10402000137004A90D2202F03BFD15210822200087
:104030006944FFF77FF908B010BDC046F8B500F03D
:1040400043F90C23194DFF22AB6705201849FDF7F2
:104050002FFE184C402200212000FFF765F9402771
:10406000002301262121144A66702783A260136071
:1040700063545F31618445396354104A1049636069
:10408000E2602787A1620B606362E26202F050FD8A
:1040900080239B052E64EB6490230A4A0120EA509A
:1040A0008022094B5202DA64F8BDC046000011506C
:1040B000E1040020CC2300208400105000011050A7
:1040C0008000105010D001000020115010B50121C7
:1040D0000520FDF78BFD10BD10B500220021024820
:1040E00000F012F910BDC046EC230020044B1970FB
:1040F000002904D080219023024A8902D1507047C0
:1041000069290020002011500B785B0602D14B7802
:10411000052B00D070478A78014B1A60FAE7C04639
:1041200000001150F0B5C646C87800B58007830F6F
:104130001800012B60D08F780A794B797F213940A4
:10414000FC091B024E001343334D32195201AA18C9
:10415000977001276740577000275B055B0DD7708C
:104160001383D076B846CA00012C32D02B4FBC4600
:104170008F016244BC46AC446746BA60474617604C
:10418000002932D0264AC900904662464144516017
:104190003F223F339343022837D0224937190A6818
:1041A0007F01D3180B602049EF19FA608B422ED89B
:1041B00036197601AD19EB7E1C499B064A40134324
:1041C0008022120613436A681360012080BCB8463F
:1041D000F0BD174FBC468F016244BC46AC446746F5
:1041E000BA6247461760002908D1002364012C19E0
:1041F0006360104BE360E8E70020E7E70B4AC90083
:104200009046624641445162C2E75B00C5E7FEF753
:1042100053FEFA68CCE7C046CC230020840010503F
:1042200004001050D4270020FF0F10500000105041
:10423000800010500001105010B502F079FC10BD44
:1042400010B57F200C0020404000E4091100001947
:104250001A00034B4001C01800F056F8012010BDB1
:10426000CC2300207F23180010B50840CA090B4258
:1042700003D107497D3B9B1A8B6640008018802242
:10428000044B40010021C018120102F059FC10BD7E
:1042900000201150CC2300207F22130010B50B40CA
:1042A0000A4200D110BDC9095B005B1804485B01DC
:1042B000C018002300220349C37002F041FCF1E75B
:1042C000CC230020FFF7FFFF80220A4B520410B5D9
:1042D0001A60094B09491A6010000B689843FBD11A
:1042E0008022002152010648FFF71EF80922054BE3
:1042F0005A6710BD00E0004000F0004008C00040D8
:104300000000105000001150002310B5C38201338B
:10431000828283760161040002F0D2FB002804D07F
:1043200080219023074A8902D150200002F0D0FB5F
:10433000002802D00123237710BD200002F0F0FBFB
:10434000FAE7C046002011507047C0467047C0468B
:1043500000207047002070477047C0467047C04635
:104360007047C0467047C046024B5878431E98417C
:10437000C0B270476C1E0020024B18784007C00F77
:104380007047C0466C1E0020F0B5D6464F464646E4
:10439000C0B5314B07009A461B780E00FF2B01D0A9
:1043A000012044E0002941D0002154222B48FEF78F
:1043B000BBFF00222A4C2B4B20001A70FDF7FCFE9D
:1043C000294B1C60294C2000143CFDF703FF200002
:1043D00001F00CFE264B274D1C60274B002B2BD0E9
:1043E0002800FFF7BFFA254B2A78186024490024DB
:1043F000894622490023884610E043461B68620133
:104400009B18002B12D05B68002B0FD098472A789E
:104410000134E4B2511C2300A1420FDBA242ECD8CC
:104420009B1A5B014B445B68002BEFD10020E0BC82
:10443000BA46B146A846F0BD2A78D7E753463100C0
:1044400038001F70FFF7FAFD0028EFD03800FFF7A3
:104450003DFE0120EBE7C0467C1000206C1E0020D2
:10446000641E00206A290020C01E00207410002055
:10447000C41E00206829002065390010BC1C0020E3
:1044800088700010F0B5DE4657464E464546E0B50A
:10449000C84B91B002931B78FF2B00D13EE1C64B75
:1044A000C64E9B465F46C64B0DAC0193C54B009371
:1044B00035686A69EFF3108172B61368002BFCD07F
:1044C000BFF35F8FA9612800210001F0BDFB6A697D
:1044D000AB69BFF35F8F0021116083F31088002860
:1044E00000D11BE16378082BE2D89B00FB589F4664
:1044F0006368002BDCD0A0689847D9E77F22217938
:10450000AF4D0A405300EB189846C8098044404616
:104510000123303005799D430571057903339D43AF
:104520000571002A00D100E14346A74A1B7D12789D
:10453000934200D3EFE0A54A5B011568ED18002D0A
:1045400000D1EBE0A36862792078AD69A847AFE7B6
:104550009F4A1378002B00D1E0E01378013BDBB2D7
:1045600013701378002BA3D10122954D01212B78D4
:10457000042013432B703423EA5C8A43EA54EA5C38
:104580008243EA540133EA5C8A43EA54EA5C824398
:10459000EA54237800209B4600F0A0FC6022237997
:1045A0001A40602A00D1EFE0402A00D1F5E0DB0696
:1045B000DB0E012B00D113E1022B00D1C7E0002B51
:1045C00000D0E1E0202A00D11CE2002A00D0DBE08C
:1045D0006379092B00D9D7E07E4A9B00D3589F46C8
:1045E000774D2B78DB0700D462E7FFF7BBFE5FE770
:1045F000019BDB78DB0700D45AE76068FFF7A6FE73
:1046000056E76F4D2B78DB0700D451E72878000779
:10461000C00FFFF7A5FE4BE723786A4999468B4602
:10462000694B6A4998468A4639001A7847460023FA
:10463000B04600254E46894610E053461B686A0185
:104640009B18002B00D176E0DB68300098473A7861
:104650000135EDB2511C2B008D4244DC9542ECD368
:104660009B1A5B015B44EFE7237858499946564B08
:104670008A4698463100BB464E461A7800250023EC
:10468000474689460FE053461B686A019B18002B7A
:1046900055D0DB68300098473A780135EDB2511CAF
:1046A0002B008D4207DC9542EDD39B1A009A5B01EB
:1046B00094466344EDE7019D542200212800FEF753
:1046C00033FE1022FF214448FEF72EFE2800202250
:1046D000FF2114304E465F46FEF726FE00F0F4FB45
:1046E000FFF73CFEE4E6364D542200212800FEF799
:1046F0001BFE1022FF21281DFEF716FE2800202297
:10470000FF21143046464F46FEF70EFE00F0DCFB5C
:104710002379AB70CCE6501C984213DA11B0F0BC90
:10472000BB46B246A946A046F0BDA3686279207890
:1047300000F0E8FBBCE646464F46214DE6E74E4614
:104740005F46CBE71F4D9B1A5B015D19FAE67023AC
:10475000217A0B4218D1C80982460F330B405B0007
:1047600098461948EB1853441B7D007899468342BC
:1047700066D216485B01006881469944002A00D140
:104780005FE14B46002B68D120780021FFF76AFDDE
:1047900080212078FFF766FD8AE6104800F09EFB36
:1047A000012158460EAAFFF7C3F8002800D07FE683
:1047B000EAE7C0467C100020E06F0010C41E002015
:1047C0006C1E00208870001068290020BC1C00208E
:1047D0006A29002004700010701E0020313900107A
:1047E000237A0F2BD0D8CF4AEB181B791578AB4220
:1047F0003ED3691C9942C7DB5D1BCB4B6D01ED18A5
:10480000686900F06BFB012158466B690EAA984756
:10481000002800D04CE66022150023791D401A4282
:10482000B2D163790A3B012BAED800F057FB637914
:104830000A2B00D199E158460EA900F0D9FA37E6C3
:10484000431C4B4500DAF7E04B461B1A5B019946C7
:10485000B5488144002A00D1F3E04B46586900F086
:104860003DFB4B46012158465B690EAA98479CE7E1
:10487000AE4A5B011568ED18002DC1D184E7A3791C
:1048800099466B789945D6D06B78002B00D033E1F0
:104890004B466B70002B00D12BE148460138C0B26B
:1048A000FFF792FA002800D17EE143780793022BAC
:1048B00000D079E10122C179B1468B114911134031
:1048C0000A40302112015B0113432A78A8468A432B
:1048D00013432B7009239A4682445646BA46C3783E
:1048E00082781B021343C31805938E4B04938E4B9F
:1048F00008938E4B09938E4B0A93059BB34200D8C5
:1049000055E1737801220B2B03D13378F278F61836
:104910007378042B00D044E1059B00279B1B9BB2BE
:104920000693049B0B921D78002303931BE0099AC6
:104930007B011568ED18002D00D132E13100584699
:104940002B69069A98478446082803D9069A82421A
:1049500000D313E1049B01371D78FFB26B1C039752
:104960009F4200DD1DE1BD42E1D8039B5D1B089B1A
:104970006D019C466544E1E76B780CAA0232137026
:10498000584601230EA900F049FA91E5E3881A0A76
:10499000D8B20F2A00D9F7E666499300CB589F4654
:1049A0000EA800F0A1FA5846A179FFF795FB022264
:1049B0002B7813432B707BE5E388012B00D0E3E6D3
:1049C00008222B78584693430EA92B7000F010FA5A
:1049D0006EE5022029780CAB9A1C8B068908DB0F48
:1049E00001400B431380584602230EA900F016FA2B
:1049F0005EE5E388012B00D0C6E608222B7813433E
:104A00002B7018E7237A0F2B00D9BDE6EB181D7920
:104A1000444B1B789D4228D2444B6D011B685D19A5
:104A2000002D00D1B0E6686900F058FA012158461F
:104A30006B690EAA9847B8E6002A00D0A4E60023C6
:104A4000994662790220130003928343012B15D00B
:104A5000002A00D098E62B004344534430331B799E
:104A60000CAA9B07DB0F0232BCE75A1CAA4200DAF1
:104A70008AE6ED1A2C4B6D01ED18D4E7E388002B84
:104A800012D1029B1878039B012B23D0FFF7EAFB7E
:104A900043460221EB18534430331A790A4301216B
:104AA0001A711A790A431A714B46002B00D1FFE4A0
:104AB000586900F013FA4B4601215B690EAA58466B
:104AC0009847002000F00AFA3523EB5CDB0700D59D
:104AD000EEE4B0E6FFF7E0FB43460221EB18534457
:104AE00030331A798A431A711A7903998A431A71F1
:104AF000DAE7FFF733FC9EE600215846FFF7F6FAA7
:104B00005846FFF799FBAB78074903930491054B8F
:104B1000064998461A780591002329001D008A4607
:104B20001BE0C0466829002088700010BC1C0020D3
:104B3000801E00202C700010059B6A011B689B18CA
:104B4000002B4DD0DB685846984743461A7801350C
:104B5000EDB2511C2B008D422EDC9542ECD39B1AFA
:104B6000049A5B0194466344ECE70CAB9A1C5846EC
:104B700001230EA9157000F051F999E40B9A012A4E
:104B80004FD0002A3CD00023B07804E00133DBB2E0
:104B90000F71934234D2C118C9B241440D79FF2D2F
:104BA000F4D04E464546574600236B70ECE54E4622
:104BB0005746FFF7D1FB3EE6554654220021280018
:104BC000FEF7B2FB1022FF21281DFEF7ADFB2800E7
:104BD0002022FF211430FEF7A7FB039BAB7057E6A2
:104BE0005546FAE7FEF7A0FE021E00D1CCE5D378C9
:104BF00091781B020B4358460EA900F00FF9D4E53B
:104C000065463B002A0031000A9800F08DFEAC4654
:104C1000049B039A1B7866440133934200DB6CE6E5
:104C2000BFE7174B29699942ADD1079AABE7FFF768
:104C30008FFB021E00D1A7E5584613780EA900F09D
:104C4000EDF8B2E52189FFF7C3F8021EF4D19BE528
:104C5000022A0FD0FFF77EFB021EC8D194E5FFF7B2
:104C6000AFF8021E00D18FE5122358460EA900F0BE
:104C7000D5F89AE5FFF7A8F8021EB8D184E5C0463A
:104C8000E9520010F8B557464E46DE4645460C0040
:104C9000E0B516001F00002A3CD01F4B00259A46A5
:104CA000702399461D4B9B4617E05B462000997880
:104CB00000F0FCFD00281FD021004046FFF732FA2B
:104CC000002819D0A378DA09012A1CD00A9A0135E4
:104CD00013702378E418B5421CDA6378052B0BD1E6
:104CE000E3789B079B0FBB4206D153464A461B788D
:104CF0009846A3781A42D8D00020F0BCBB46B246F2
:104D0000A946A046F8BD0B9A013513702378E41824
:104D1000B542E2DB0120F0E77C1000206C1E002091
:104D2000702270B5094B0C001D788B781A4201D0A7
:104D3000002070BD064B2000997800F0B7FD0028D8
:104D4000F6D021002800FFF7EDF9F2E77C100020F3
:104D50006C1E00200B007F2010B51840DB09343397
:104D60004000044AC018044B1168C01800F05AFDF6
:104D700010BDC046C01E00206C1E00200B007F200E
:104D800010B51840DB0934334000044AC018044B06
:104D90001168C01800F06EFD10BDC046C01E002096
:104DA0006C1E002070B57F240F480C40640004196D
:104DB000CD09641930342079C00701D5002070BDB9
:104DC000012625790948354300782571FFF738FA1F
:104DD0000028F4D1012223799343237123790332EC
:104DE00093432371EAE7C0466C1E00207C1000202C
:104DF00070B5094C0600082220000D00FEF79AFA53
:104E000000238021E360A3602B78300099430022C7
:104E10000023FFF7C7FF70BD4C1E0020F8B5CE463B
:104E200047469046264E80B58146082230000D0048
:104E30001F00FEF77FFA4346B3600023F381EC794D
:104E4000AB7924021C43231CBC4200D93B1C9FB2FB
:104E5000B381002C0ED0002F18D04346002B2CD04D
:104E60003B1C402F1BD89FB233787F2B1CD80021CE
:104E7000144A0FE080212B780022994348460023F2
:104E8000FFF790FFC0BCB946B046F8BD7F230022B3
:104E9000317899433B004846FFF784FFF2E740230F
:104EA0009FB233787F2BE2D9064C3A00414620006E
:104EB000FEF740FA80212200ECE70020E2E7C0463E
:104EC0004C1E00200C1E002010B5142200210248A8
:104ED000FEF72AFA10BDC0464C1E0020014B186197
:104EE0007047C0464C1E002010B5054C010008223A
:104EF0002000FEF71FFA0023A360E36010BDC04648
:104F00004C1E002070B5384C1D0023780600DA09CD
:104F1000C9098A4210D00020002D00D070BD2100A8
:104F20003000FFF7F1F82369002B03D022000321A2
:104F3000300098470120F1E7A0687F2B05D80028B2
:104F400034D02A002949FEF7F5F9E289A1685219FF
:104F5000E38892B24919E281A160934214D03F2DB7
:104F600012D9A389981A051C80B240282AD8207823
:104F7000ADB27F2828D800219A4232D01B4A2B009C
:104F80003000FFF70FFFC9E72369002B05D022008F
:104F900002213000984700280AD08021237800227F
:104FA000994330000023FFF7FDFEB7E70020B5E787
:104FB00000213000FFF756F930008021FFF752F949
:104FC0000120ABE74025D2E79A4207D0074C2A00E0
:104FD0002000FEF7AFF980212200D0E780210022D7
:104FE000CDE70022CBE7C0464C1E00200C1E00205F
:104FF00070B50500FFF7B8F9002800D170BDFFF7C4
:10500000BBF90028FAD1C8236B43124CE618F1789B
:105010000029F3D010331C19200000F0FFFD3F28B9
:10502000ECD90020F178FFF795FE0028E6D02000AB
:1050300000F0F4FD3F2808D9074BEA01D218F178B7
:1050400040230020FFF7AEFED8E7F1780020FFF7FD
:1050500095FED3E7441D0020C01C002010B50400BD
:10506000FFF782F9002801D1002010BDFFF784F975
:105070000028F9D1C8226243024B01309B181B79EA
:105080001840F2E7441D0020C82310B543430248EE
:10509000181800F0A5FD10BD541D0020F0B5C8245F
:1050A000C646802344431F4F1034050000B53C1909
:1050B0005B029A4200D31C4A200092B200F012FE1A
:1050C0008046FFF751F9002803D1404680BCB8461E
:1050D000F0BDFFF751F90028F7D1C8266E43BE197D
:1050E000F378002BF1D0200000F098FD3F28ECD998
:1050F0000020F178FFF72EFE0028E6D0200000F017
:105100008DFD3F2808D9094BEA01D218F1784023D8
:105110000020FFF747FED8E7F1780020FFF72EFECA
:10512000D3E7C046441D0020FFFF0000C01C002044
:10513000F8B50600FFF718F9002801D10020F8BDE6
:10514000FFF71AF90028F9D1C82474432500134F3A
:105150002435ED19280000F043FD0028EED03F195A
:105160000020B978FFF7F6FD0028E7D00C4BF401DA
:10517000E41821002800402200F0B4FDB978051E93
:1051800008D0030022000020FFF70CFE0028D5D035
:105190002800D4E70020FFF7F1FDCFE7441D0020F1
:1051A000001D002070B5C82444430C4B0500E418D2
:1051B00080235B029A4200D3094A200092B200F099
:1051C00059FE0600200000F00BFD3F2801D83000FA
:1051D00070BD2800FFF7ACFFF9E7C046681D00204E
:1051E000FFFF0000C82310B543430248181800F021
:1051F00015FD10BD681D0020F0B50025184C83B0CA
:10520000C82200212000FEF78FF8164B21001D70E8
:10521000FF236371E1235B02A36020000823402287
:10522000A37338310095073B103000F0A3FC270032
:105230000123210020002600402278310093B83756
:10524000243000F097FCC0363800FCF7B5FF300082
:10525000FCF7B2FFE56127622663656303B0F0BD2A
:10526000441D0020401D00200B4B196B00290AD063
:105270001A6A002A0DD000221A621A63DA6100222B
:105280005A63012070471A6A002AFAD0D96119625C
:10529000F7E71A63F3E7C046441D002070B50F4CD2
:1052A000052200212000FEF73FF80D4D2B78DA078C
:1052B00007D50C4C9B070CD50121200000F0B6FE51
:1052C00070BD2000103000F091FE2B78054C9B073C
:1052D000F2D4200000F08AFEEEE7C046441D002014
:1052E000401D0020681D0020F0B54B79060083B0FA
:1052F000022B02D18B79022B03D00025280003B0AA
:10530000F0BD214FBB78002BF7D18B7809253B707E
:105310000C780C196378242B0BD1082A02D80FE0E3
:10532000AA420DD32378E4185D196378ADB2242B1B
:10533000F6D0052B08D0042B02D163790A2B11D0AB
:105340000020FFF755FED9E721003000FFF7E8FC09
:105350000028D2D0A3787B7023785D19E418637895
:10536000ADB2E8E7094B277801930133009302229D
:1053700002233000E119FFF785FC0028BDD00E356F
:10538000ED19ADB2DCE7C046441D0020461D0020EB
:10539000F8B5602314001278050013400020202B7C
:1053A00007D1304A6379277916781B023B439E4226
:1053B00000D0F8BD6378222B1AD007D8202B34D028
:1053C000212BF6D101293ED00120F2E7232BF0D189
:1053D000012940D00329F7D1234B002BF4D0E178E9
:1053E000A37809020020194300E000BF0120E0E794
:1053F000012930D00329E7D101252E00A378E478D4
:10540000023924021C4314712640243210007140DA
:1054100000F00CFE154B002BD6D0620800203100A6
:105420002A4000E000BF0120C3E701290BD0032977
:10543000CAD10F4B002BC7D0083200201100FEF755
:1054400097FA0120B5E7072321002800094AFFF752
:10545000E5FC0120ADE721002800FFF7C9FC012091
:10546000A7E7C046441D0020000000000000000027
:10547000713900104C1D0020F0B54F464646D64607
:10548000364DC0B5EA781F0080460C00AB788A42E2
:105490003BD08B4210D00020E0BCBA46B146A846B3
:1054A000F0BD2F4B002B04D02E4800F0AFFB00289E
:1054B00051D00020FFF79CFDAB78A34201D0012022
:1054C000EAE7294B002B02D0002000E000BF0020BB
:1054D000FFF72EFE0028F2D1244C200000F080FBC4
:1054E0000028ECD1002FEAD0BF06E8D1243C40468A
:1054F000A178FFF72FFC0028E1D0002300224046CE
:10550000A178FFF74FFC0120C6E710239A46184EFA
:10551000AA4431005046BAB200F0ACFC154B002B47
:10552000BFD06B79FF2BBCD0002FBAD0F2199146B7
:1055300003E00136B145B4D06B7932789A42F8D1A4
:10554000504600F063FB0028F3D15346103B5979D5
:1055500000E000BFEDE700E000BFAAE7441D002027
:1055600000000000541D002000000000681D002005
:10557000C01C0020000000009322F0B5134C85B041
:10558000002120009200FDF7CFFE2300200080269E
:1055900040270F4D4D337600FF332930029500939D
:1055A00000220023002103970196FF3000F0D6F976
:1055B0004035201D28340023012200210397029545
:1055C0000196009400F0CAF905B0F0BD0820002053
:1055D000881F002010B5054C200000F0F5F92000D0
:1055E0002538FF3800F0F0F9012010BD30210020EF
:1055F00070B5084C002520003130FF30257000F0D8
:10560000F5FC20000C3000F0F1FC2A23FF33E554B8
:10561000657170BD08200020F8B557464546DE4646
:105620004E46E0B54B7980460F00FF2B27D1424B09
:105630000C7899462A234946FF33CB5C002B1ED1B8
:105640004E79002E1BD1BB783C190B703B79002B97
:1056500012D098235B004B449A460C234B449B4644
:10566000A5186378052B05D110E02378E41863783A
:10567000052B0BD0A542F8D8E01B80B200E000203B
:10568000F0BCBB46B246A946A046F8BDA542F3D938
:1056900021004046FFF744FB0028F0D0A3780136F4
:1056A000F6B2DB09012B29D0504600F09FFC2A23DB
:1056B0004946A278FF33CA54637922791B02134307
:1056C0001E4A5B0594465B0D942163445A42534144
:1056D0004A4602204900525C5B00824313434A461B
:1056E000535451464046083900F0D6F90028C6D038
:1056F0002378E4183B79B342B3D8BDE7584600F0AD
:1057000075FC5A46A3780C3A5371637921791B02D0
:105710000B430A495B058C465B0D634459424B4180
:10572000022011795B0081430B4359460020083960
:10573000137100F07FF9DBE70820002000FEFFFF77
:1057400070B505002A201F4CFF30205C1E006379D5
:10575000884203D000208B421DD070BD9A235B008D
:10576000E35A002B0DD1184B002B04D00020174911
:10577000B2B200E000BF2800154900F08DF9012009
:10578000EBE72000962331305B00E158B2B2FF30E6
:1057900000F070FBE7E70F4B002B04D03104002032
:1057A000090C00E000BF0C4C2800210000F042F979
:1057B0000028E4D132002100280000F007F9012080
:1057C000CBE7C0460820002000000000881F002012
:1057D00030210020000000000C20002000B5030054
:1057E00083B0002910D00020012B07D80A78002AA6
:1057F00004D00B48C2540120012A01D003B000BDDF
:105800001800FEF7C1FDF9E7012301A900200B8074
:10581000FEF7BAFD0028F1D00122014B1A70EDE726
:10582000601E0020037870B5DB0704000E00DD0F5A
:10583000002B17D103785B0701D5280070BD01212B
:105840003000494201F05CF92378DB07DD0F002BC3
:105850000AD123785B0708D4042223780125134357
:10586000237002E00025E8E70025300001F020F970
:10587000E3E7C04670B50C00012106004942200054
:1058800001F03EF933785B07DD0F002B04DB2000CD
:1058900001F00EF9280070BD3378DB0704D4042230
:1058A000337893433370F2E70025F0E743790279C8
:1058B0001B021343C2785B0592075B0D920F022A0D
:1058C0001DD0032A0CD00020012A08D102394A42F7
:1058D0005141124A9446614499424041C0B27047D6
:1058E00002394A1E91410E4A494211408022D2009B
:1058F00094460020614499424041C0B2EFE702293A
:1059000005D0002040229A424041C0B2E7E7054A54
:10591000981843425841C0B2E1E7C046FF03000077
:1059200040FCFFFF00FEFFFF8A1870B5914207D2CE
:105930007F264C78052C04D00C7809198A42F8D8B7
:1059400070BD34008D782C4064000419ED09635556
:105950000C7809198A42ECD8F2E7C046F0B5C64681
:1059600000B582B0150008AA40CA040017880BAA27
:105970001288012090460A002178024081432000CD
:10598000114321703A00009331000123083000F0E8
:10599000F1F8002E01D0002F08D10A9B012063608E
:1059A0004346638002B080BCB846F0BD26001C367A
:1059B0003000FCF701FC0023002D01D0330000264D
:1059C0006361A661E9E7C04601207047F8B502248B
:1059D0000B7807001C4063425C41144B64421C403E
:1059E000134B08009C4608300D001600644400F07C
:1059F000F7F8002807D1002E05D0344203D1012446
:105A00002B781C4201D00020F8BD38006978FFF7E0
:105A1000A1F90028F7D02B781C42F4D100230022F2
:105A200038006978FFF7BEF9EEE7C04640FEFFFF99
:105A3000FF010000F8B50D000835060028000C0035
:105A400000F0CEF8002803D0012723781F4201D0B0
:105A50000020F8BD30006178FFF77CF90028F7D00E
:105A600028006288616800F03DF92378051E0BD09C
:105A70001F42EDD10300626830006178FFF792F9B0
:105A80000028E5D02800E4E71F42E1D1300061782A
:105A9000FFF774F9DCE7C046F8B5CE46474680B557
:105AA0008A8905000C000B78002A07D101261E42C6
:105AB0003FD00020C0BCB946B046F8BD9B0734D5E6
:105AC000FE2380261B029946B600270008373800BF
:105AD00000F0A4F88642ECD80122237890461A42BE
